{
  "_format": "hh-sol-artifact-1",
  "contractName": "Pomogra",
  "sourceName": "contracts/Pomogra.sol",
  "abi": [
    {
      "inputs": [
        {
          "internalType": "string",
          "name": "message_",
          "type": "string"
        },
        {
          "internalType": "enum Pomogra.PaperType",
          "name": "paperType_",
          "type": "uint8"
        }
      ],
      "name": "addPaper",
      "outputs": [],
      "stateMutability": "nonpayable",
      "type": "function"
    },
    {
      "inputs": [],
      "name": "chain",
      "outputs": [
        {
          "components": [
            {
              "internalType": "string",
              "name": "message",
              "type": "string"
            },
            {
              "internalType": "address",
              "name": "owner",
              "type": "address"
            },
            {
              "internalType": "enum Pomogra.PaperType",
              "name": "paperType",
              "type": "uint8"
            }
          ],
          "internalType": "struct Pomogra.Paper[]",
          "name": "",
          "type": "tuple[]"
        }
      ],
      "stateMutability": "view",
      "type": "function"
    },
    {
      "inputs": [
        {
          "internalType": "address",
          "name": "owner_",
          "type": "address"
        }
      ],
      "name": "ownerExists",
      "outputs": [
        {
          "internalType": "bool",
          "name": "",
          "type": "bool"
        }
      ],
      "stateMutability": "view",
      "type": "function"
    },
    {
      "inputs": [],
      "name": "owners",
      "outputs": [
        {
          "internalType": "address[]",
          "name": "",
          "type": "address[]"
        }
      ],
      "stateMutability": "view",
      "type": "function"
    }
  ],
  "bytecode": "0x608060405234801561001057600080fd5b50610c8f806100206000396000f3fe608060405234801561001057600080fd5b506004361061004c5760003560e01c806359dbfde814610051578063ae17c10414610081578063affe39c11461009d578063c763e5a1146100bb575b600080fd5b61006b60048036038101906100669190610729565b6100d9565b604051610078919061099f565b60405180910390f35b61009b60048036038101906100969190610752565b61012f565b005b6100a5610398565b6040516100b2919061095b565b60405180910390f35b6100c3610426565b6040516100d0919061097d565b60405180910390f35b6000600260008373ffffffffffffffffffffffffffffffffffffffff1673ffffffffffffffffffffffffffffffffffffffff16815260200190815260200160002060009054906101000a900460ff169050919050565b600060405180606001604052808481526020013373ffffffffffffffffffffffffffffffffffffffff168152602001836002811115610197577f4e487b7100000000000000000000000000000000000000000000000000000000600052602160045260246000fd5b815250908060018154018082558091505060019003906000526020600020906002020160009091909190915060008201518160000190805190602001906101df9291906105f4565b5060208201518160010160006101000a81548173ffffffffffffffffffffffffffffffffffffffff021916908373ffffffffffffffffffffffffffffffffffffffff16021790555060408201518160010160146101000a81548160ff02191690836002811115610278577f4e487b7100000000000000000000000000000000000000000000000000000000600052602160045260246000fd5b0217905550505060001515600260003373ffffffffffffffffffffffffffffffffffffffff1673ffffffffffffffffffffffffffffffffffffffff16815260200190815260200160002060009054906101000a900460ff1615151415610394576001600260003373ffffffffffffffffffffffffffffffffffffffff1673ffffffffffffffffffffffffffffffffffffffff16815260200190815260200160002060006101000a81548160ff0219169083151502179055506001339080600181540180825580915050600190039060005260206000200160009091909190916101000a81548173ffffffffffffffffffffffffffffffffffffffff021916908373ffffffffffffffffffffffffffffffffffffffff1602179055505b5050565b6060600180548060200260200160405190810160405280929190818152602001828054801561041c57602002820191906000526020600020905b8160009054906101000a900473ffffffffffffffffffffffffffffffffffffffff1673ffffffffffffffffffffffffffffffffffffffff16815260200190600101908083116103d2575b5050505050905090565b60606000805480602002602001604051908101604052809291908181526020016000905b828210156105eb578382906000526020600020906002020160405180606001604052908160008201805461047d90610b4e565b80601f01602080910402602001604051908101604052809291908181526020018280546104a990610b4e565b80156104f65780601f106104cb576101008083540402835291602001916104f6565b820191906000526020600020905b8154815290600101906020018083116104d957829003601f168201915b505050505081526020016001820160009054906101000a900473ffffffffffffffffffffffffffffffffffffffff1673ffffffffffffffffffffffffffffffffffffffff1673ffffffffffffffffffffffffffffffffffffffff1681526020016001820160149054906101000a900460ff1660028111156105a0577f4e487b7100000000000000000000000000000000000000000000000000000000600052602160045260246000fd5b60028111156105d8577f4e487b7100000000000000000000000000000000000000000000000000000000600052602160045260246000fd5b815250508152602001906001019061044a565b50505050905090565b82805461060090610b4e565b90600052602060002090601f0160209004810192826106225760008555610669565b82601f1061063b57805160ff1916838001178555610669565b82800160010185558215610669579182015b8281111561066857825182559160200191906001019061064d565b5b509050610676919061067a565b5090565b5b8082111561069357600081600090555060010161067b565b5090565b60006106aa6106a5846109eb565b6109ba565b9050828152602081018484840111156106c257600080fd5b6106cd848285610b0c565b509392505050565b6000813590506106e481610c32565b92915050565b6000813590506106f981610c49565b92915050565b600082601f83011261071057600080fd5b8135610720848260208601610697565b91505092915050565b60006020828403121561073b57600080fd5b6000610749848285016106d5565b91505092915050565b6000806040838503121561076557600080fd5b600083013567ffffffffffffffff81111561077f57600080fd5b61078b858286016106ff565b925050602061079c858286016106ea565b9150509250929050565b60006107b283836107d2565b60208301905092915050565b60006107ca838361090b565b905092915050565b6107db81610aa9565b82525050565b60006107ec82610a3b565b6107f68185610a76565b935061080183610a1b565b8060005b8381101561083257815161081988826107a6565b975061082483610a5c565b925050600181019050610805565b5085935050505092915050565b600061084a82610a46565b6108548185610a87565b93508360208202850161086685610a2b565b8060005b858110156108a2578484038952815161088385826107be565b945061088e83610a69565b925060208a0199505060018101905061086a565b50829750879550505050505092915050565b6108bd81610abb565b82525050565b6108cc81610afa565b82525050565b60006108dd82610a51565b6108e78185610a98565b93506108f7818560208601610b1b565b61090081610c0d565b840191505092915050565b6000606083016000830151848203600086015261092882826108d2565b915050602083015161093d60208601826107d2565b50604083015161095060408601826108c3565b508091505092915050565b6000602082019050818103600083015261097581846107e1565b905092915050565b60006020820190508181036000830152610997818461083f565b905092915050565b60006020820190506109b460008301846108b4565b92915050565b6000604051905081810181811067ffffffffffffffff821117156109e1576109e0610bde565b5b8060405250919050565b600067ffffffffffffffff821115610a0657610a05610bde565b5b601f19601f8301169050602081019050919050565b6000819050602082019050919050565b6000819050602082019050919050565b600081519050919050565b600081519050919050565b600081519050919050565b6000602082019050919050565b6000602082019050919050565b600082825260208201905092915050565b600082825260208201905092915050565b600082825260208201905092915050565b6000610ab482610ada565b9050919050565b60008115159050919050565b6000819050610ad582610c1e565b919050565b600073ffffffffffffffffffffffffffffffffffffffff82169050919050565b6000610b0582610ac7565b9050919050565b82818337600083830152505050565b60005b83811015610b39578082015181840152602081019050610b1e565b83811115610b48576000848401525b50505050565b60006002820490506001821680610b6657607f821691505b60208210811415610b7a57610b79610baf565b5b50919050565b7f4e487b7100000000000000000000000000000000000000000000000000000000600052602160045260246000fd5b7f4e487b7100000000000000000000000000000000000000000000000000000000600052602260045260246000fd5b7f4e487b7100000000000000000000000000000000000000000000000000000000600052604160045260246000fd5b6000601f19601f8301169050919050565b60038110610c2f57610c2e610b80565b5b50565b610c3b81610aa9565b8114610c4657600080fd5b50565b60038110610c5657600080fd5b5056fea2646970667358221220f884707dbe49f144ebd2d2c55d5b341db09add90ff65543ce1700e77d78f637264736f6c63430008000033",
  "linkReferences": {},
  "deployedLinkReferences": {}
}